:200000001DC02CC02CC02AC029C028C027C026C025C024C023C022C021C020C01FC077C03E
:2000200079C07BC07DC07CC07EC09FC0E3C003C104C105C106C108C107C109C111241FBE10
:20004000CFE5D2E0DEBFCDBF20E0A0E6B0E001C01D92A236B207E1F743D0FEC0D1CF1F9200
:200060000F920FB60F9211242F938F939F938091600090916100409750F48091600090918E
:2000800061000196909361008093600004C010926100109260002FEC81E091E0215080408A
:2000A0009040E1F700C000009F918F912F910F900FBE0F901F90189580E28BBF88E085BB0D
:2000C0007894B89ABC9ABB9AC39A83E88ABD91E093BF8CEF89BD90BF90E69CBD8BBD089581
:2000E000EBDF88B3897188BB40E050E031E08FEF9CED6AEF2EEFAFE7E0916000F091610097
:20010000EF30F10508F0A5C0E15FFF4F09942BBD29BDF2CF6BBD69BDEFCFABBDA9BDECCF1E
:200120002BBD99BDE9CF7BB579BD79B57E3F19F079B5763E99F439B53E3F11F031E001C0C2
:200140003FEF4F5F5F4FE1E2F1EA3197F1F700C000004A305105A9F740E050E079B5730F97
:2001600079BD7BB5730F7BBDC7CF4BB549BD29BD9BBDE1E2F1EA3197F1F700C00000E1E2B4
:20018000F1EA3197F1F700C00000E1E2F1EA3197F1F700C00000E1E2F1EA3197F1F700C0F8
:2001A0000000E1E2F1EA3197F1F700C0000099BD2BBDE1E2F1EA3197F1F700C00000E1E222
:2001C000F1EA3197F1F700C00000E1E2F1EA3197F1F700C00000E1E2F1EA3197F1F700C0B8
:2001E0000000E1E2F1EA3197F1F700C0000045E050E082CF4BB549BD29BD9BBDE1E2F1EA69
:200200003197F1F700C00000E1E2F1EA3197F1F700C0000099BD2BBDE1E2F1EA3197F1F7D4
:2002200000C00000E1E2F1EA3197F1F700C0000042E050E061CF29BD0DC069BD0BC099BD74
:1C02400009C089BD6BBD58CF89BD9BBD55CF89BD8BBD89BD8BBD50CFF894FFCFED
:00000001FF
